{
  "contractName": "ContractA",
  "abi": [
    {
      "inputs": [],
      "stateMutability": "nonpayable",
      "type": "constructor"
    },
    {
      "inputs": [
        {
          "internalType": "uint256",
          "name": "i",
          "type": "uint256"
        }
      ],
      "name": "simpleSet",
      "outputs": [],
      "stateMutability": "nonpayable",
      "type": "function"
    },
    {
      "inputs": [
        {
          "internalType": "uint256",
          "name": "i",
          "type": "uint256"
        }
      ],
      "name": "simpleView",
      "outputs": [
        {
          "internalType": "uint256",
          "name": "",
          "type": "uint256"
        },
        {
          "internalType": "bool",
          "name": "",
          "type": "bool"
        }
      ],
      "stateMutability": "view",
      "type": "function"
    },
    {
      "inputs": [],
      "name": "tryCatch",
      "outputs": [
        {
          "internalType": "uint256",
          "name": "",
          "type": "uint256"
        },
        {
          "internalType": "bool",
          "name": "",
          "type": "bool"
        }
      ],
      "stateMutability": "nonpayable",
      "type": "function"
    },
    {
      "inputs": [],
      "name": "arraySlice",
      "outputs": [],
      "stateMutability": "pure",
      "type": "function"
    },
    {
      "inputs": [],
      "name": "payableFn",
      "outputs": [],
      "stateMutability": "pure",
      "type": "function"
    }
  ],
  "bytecode": "0x608060405234801561001057600080fd5b506103ca806100206000396000f3fe608060405234801561001057600080fd5b50600436106100575760003560e01c8063531ba2f21461005c5780637c5a83e01461008a5780637ef135f5146100d75780639162736b146100e1578063eb9ef6d3146100eb575b600080fd5b6100886004803603602081101561007257600080fd5b8101908080359060200190929190505050610114565b005b6100b6600480360360208110156100a057600080fd5b8101908080359060200190929190505050610122565b60405180838152602001821515151581526020019250505060405180910390f35b6100df610140565b005b6100e961014a565b005b6100f36101a6565b60405180838152602001821515151581526020019250505060405180910390f35b806001540160018190555050565b600080600161013057600080fd5b8260015401600191509150915091565b6000808190505050565b6000366004818082111561015d57600080fd5b8281111561016a57600080fd5b600182028401935081810392505050604081101561018757600080fd5b8101908080359060200190929190803590602001909291905050505050565b6000803073ffffffffffffffffffffffffffffffffffffffff16637c5a83e060056040518263ffffffff1660e01b815260040180828152602001915050604080518083038186803b1580156101fa57600080fd5b505afa92505050801561023857506040513d604081101561021a57600080fd5b81019080805190602001909291908051906020019092919050505060015b6103825760006040519050600081526001156103015760443d10156102605760009050610301565b60046000803e60005160e01c6308c379a08114610281576000915050610301565b60043d036004833e81513d602482011167ffffffffffffffff821117156102ad57600092505050610301565b808301805167ffffffffffffffff8111156102cf576000945050505050610301565b8060208301013d86018111156102ed57600095505050505050610301565b601f19601f82011660405282955050505050505b8061030c575061032e565b6002600081548092919060010191905055506000808191509250925050610390565b3d806000811461035a576040519150601f19603f3d011682016040523d82523d6000602084013e61035f565b606091505b506002600081548092919060010191905055506000808191509250925050610390565b600260018191509350935050505b909156fea26469706673582212205c35c0df5637a0ba0ffef868ded38cf2a604466a405b073e6458fefd3f85e05064736f6c63430006000033",
  "source": "pragma solidity ^0.6.0;\n\nimport \"./ContractB.sol\";\n\ncontract ContractA is ContractB {\n  uint counter;\n  uint errorCount;\n\n  modifier overridden() override {\n    require(true);\n    _;\n  }\n\n  constructor() public {\n  }\n\n  function simpleSet(uint i)\n    public\n    override(ContractB)\n  {\n    counter = counter + i;\n  }\n\n  function simpleView(uint i)\n    view\n    overridden\n    external\n    returns (uint, bool)\n  {\n    return (counter + i, true);\n  }\n\n  function tryCatch() public returns (uint, bool) {\n    try this.simpleView(5) returns (uint, bool) {\n        return (2, true);\n    } catch Error(string memory) {\n        errorCount++;\n        return (0, false);\n    } catch (bytes memory) {\n        errorCount++;\n        return (0, false);\n    }\n  }\n\n  function arraySlice() public pure {\n    abi.decode(msg.data[4:], (uint, uint));\n  }\n\n  function payableFn() public pure {\n    address x;\n    address y = payable(x);\n  }\n}\n",
  "sourcePath": "/Users/cgewecke/code/sc-forks/new-master/solidity-coverage/test/integration/projects/solc-6/contracts/ContractA.sol",
  "compiler": {
    "name": "solc",
    "version": "0.6.0+commit.26b70077.Emscripten.clang"
  },
  "schemaVersion": "3.0.20",
  "updatedAt": "2019-12-21T22:48:33.668Z",
  "devdoc": {
    "methods": {}
  },
  "userdoc": {
    "methods": {}
  }
}