{
  "contractName": "ContractB",
  "abi": [
    {
      "inputs": [],
      "stateMutability": "nonpayable",
      "type": "constructor"
    },
    {
      "inputs": [
        {
          "internalType": "uint256",
          "name": "i",
          "type": "uint256"
        }
      ],
      "name": "simpleSet",
      "outputs": [],
      "stateMutability": "nonpayable",
      "type": "function"
    }
  ],
  "bytecode": "0x6080604052348015600f57600080fd5b5060998061001e6000396000f3fe6080604052348015600f57600080fd5b506004361060285760003560e01c8063531ba2f214602d575b600080fd5b605660048036036020811015604157600080fd5b81019080803590602001909291905050506058565b005b60056000819055505056fea2646970667358221220b2e66acbf3344867ca3e8b853808686b9f20429f3292f397b3ae4a280c825fa964736f6c63430006000033",
  "source": "pragma solidity ^0.6.0;\n\n\ncontract ContractB {\n  uint value;\n\n  constructor() public {\n  }\n\n  modifier overridden() virtual {\n    require(true);\n    _;\n  }\n\n  function simpleSet(uint i) public virtual {\n    value = 5;\n  }\n}\n",
  "sourcePath": "/Users/cgewecke/code/sc-forks/new-master/solidity-coverage/test/integration/projects/solc-6/contracts/ContractB.sol",
  "compiler": {
    "name": "solc",
    "version": "0.6.0+commit.26b70077.Emscripten.clang"
  },
  "schemaVersion": "3.0.20",
  "updatedAt": "2019-12-21T22:43:06.828Z",
  "devdoc": {
    "methods": {}
  },
  "userdoc": {
    "methods": {}
  }
}